{
  "transactions": [
    {
      "hash": "0x31071484aba24f47c7cab87b9216c96f0a73a9fe3696eaf270ae55761f126322",
      "transactionType": "CALL",
      "contractName": null,
      "contractAddress": "0x779877A7B0D9E8603169DdbD7836e478b4624789",
      "function": "transferAndCall(address,uint256,bytes)",
      "arguments": [
        "0x8103B0A8A00be2DDC778e6e7eaa21791Cd364625",
        "3000000000000000000",
        "0x0000000000000000000000000000000000000000000000000000000000000765"
      ],
      "transaction": {
        "type": "0x02",
        "from": "0x6e8854baa173617fcc7fb5ef205972ac750929a0",
        "to": "0x779877a7b0d9e8603169ddbd7836e478b4624789",
        "gas": "0x13fbe",
        "value": "0x0",
        "data": "0x4000aea00000000000000000000000008103b0a8a00be2ddc778e6e7eaa21791cd36462500000000000000000000000000000000000000000000000029a2241af62c0000000000000000000000000000000000000000000000000000000000000000006000000000000000000000000000000000000000000000000000000000000000200000000000000000000000000000000000000000000000000000000000000765",
        "nonce": "0xa",
        "accessList": []
      },
      "additionalContracts": [],
      "isFixedGasLimit": false
    }
  ],
  "receipts": [],
  "libraries": [],
  "pending": [
    "0x31071484aba24f47c7cab87b9216c96f0a73a9fe3696eaf270ae55761f126322"
  ],
  "returns": {},
  "timestamp": 1712242527,
  "chain": 11155111,
  "multi": false,
  "commit": "b53ceeb"
}