{
  "transactions": [
    {
      "hash": "0x31071484aba24f47c7cab87b9216c96f0a73a9fe3696eaf270ae55761f126322",
      "transactionType": "CALL",
      "contractName": null,
      "contractAddress": "0x779877A7B0D9E8603169DdbD7836e478b4624789",
      "function": "transferAndCall(address,uint256,bytes)",
      "arguments": [
        "0x8103B0A8A00be2DDC778e6e7eaa21791Cd364625",
        "3000000000000000000",
        "0x0000000000000000000000000000000000000000000000000000000000000765"
      ],
      "transaction": {
        "type": "0x02",
        "from": "0x6e8854baa173617fcc7fb5ef205972ac750929a0",
        "to": "0x779877a7b0d9e8603169ddbd7836e478b4624789",
        "gas": "0x13fbe",
        "value": "0x0",
        "data": "0x4000aea00000000000000000000000008103b0a8a00be2ddc778e6e7eaa21791cd36462500000000000000000000000000000000000000000000000029a2241af62c0000000000000000000000000000000000000000000000000000000000000000006000000000000000000000000000000000000000000000000000000000000000200000000000000000000000000000000000000000000000000000000000000765",
        "nonce": "0xa",
        "accessList": []
      },
      "additionalContracts": [],
      "isFixedGasLimit": false
    }
  ],
  "receipts": [
    {
      "transactionHash": "0x31071484aba24f47c7cab87b9216c96f0a73a9fe3696eaf270ae55761f126322",
      "transactionIndex": "0xe",
      "blockHash": "0xe77a7cd33fcbfd8228993b4040d3aa0a15337d832b76af09ca60d60836d4c87b",
      "blockNumber": "0x55e0ec",
      "from": "0x6E8854Baa173617FcC7FB5EF205972AC750929a0",
      "to": "0x779877A7B0D9E8603169DdbD7836e478b4624789",
      "cumulativeGasUsed": "0x15bdd2",
      "gasUsed": "0xe77e",
      "contractAddress": null,
      "logs": [
        {
          "address": "0x779877A7B0D9E8603169DdbD7836e478b4624789",
          "topics": [
            "0xddf252ad1be2c89b69c2b068fc378daa952ba7f163c4a11628f55a4df523b3ef",
            "0x0000000000000000000000006e8854baa173617fcc7fb5ef205972ac750929a0",
            "0x0000000000000000000000008103b0a8a00be2ddc778e6e7eaa21791cd364625"
          ],
          "data": "0x00000000000000000000000000000000000000000000000029a2241af62c0000",
          "blockHash": "0xe77a7cd33fcbfd8228993b4040d3aa0a15337d832b76af09ca60d60836d4c87b",
          "blockNumber": "0x55e0ec",
          "transactionHash": "0x31071484aba24f47c7cab87b9216c96f0a73a9fe3696eaf270ae55761f126322",
          "transactionIndex": "0xe",
          "logIndex": "0x1a",
          "removed": false
        },
        {
          "address": "0x779877A7B0D9E8603169DdbD7836e478b4624789",
          "topics": [
            "0xe19260aff97b920c7df27010903aeb9c8d2be5d310a2c67824cf3f15396e4c16",
            "0x0000000000000000000000006e8854baa173617fcc7fb5ef205972ac750929a0",
            "0x0000000000000000000000008103b0a8a00be2ddc778e6e7eaa21791cd364625"
          ],
          "data": "0x00000000000000000000000000000000000000000000000029a2241af62c0000000000000000000000000000000000000000000000000000000000000000004000000000000000000000000000000000000000000000000000000000000000200000000000000000000000000000000000000000000000000000000000000765",
          "blockHash": "0xe77a7cd33fcbfd8228993b4040d3aa0a15337d832b76af09ca60d60836d4c87b",
          "blockNumber": "0x55e0ec",
          "transactionHash": "0x31071484aba24f47c7cab87b9216c96f0a73a9fe3696eaf270ae55761f126322",
          "transactionIndex": "0xe",
          "logIndex": "0x1b",
          "removed": false
        },
        {
          "address": "0x8103B0A8A00be2DDC778e6e7eaa21791Cd364625",
          "topics": [
            "0xd39ec07f4e209f627a4c427971473820dc129761ba28de8906bd56f57101d4f8",
            "0x0000000000000000000000000000000000000000000000000000000000000765"
          ],
          "data": "0x00000000000000000000000000000000000000000000000234dd9b24e3a7302f0000000000000000000000000000000000000000000000025e7fbf3fd9d3302f",
          "blockHash": "0xe77a7cd33fcbfd8228993b4040d3aa0a15337d832b76af09ca60d60836d4c87b",
          "blockNumber": "0x55e0ec",
          "transactionHash": "0x31071484aba24f47c7cab87b9216c96f0a73a9fe3696eaf270ae55761f126322",
          "transactionIndex": "0xe",
          "logIndex": "0x1c",
          "removed": false
        }
      ],
      "status": "0x1",
      "logsBloom": "0x0000001400000040000000000000000000000004000000020000000002000000000040000000800000000000000000000000000000000000000000000000000000000000000000000000000800000000000000000000000000002000000000000000000000000000000000000000000000000000400010000000001000000000000000000c000020000000000000800010000020000000000000000020000000000000000000000000000000000000000000000000000000000400000000000000000002000000000000000000000000000000000000000100000000000000000000000000800000000000000000000000000000000000000000000000000000",
      "type": "0x2",
      "effectiveGasPrice": "0x2f064d8b4"
    }
  ],
  "libraries": [],
  "pending": [],
  "returns": {},
  "timestamp": 1712242541,
  "chain": 11155111,
  "multi": false,
  "commit": "b53ceeb"
}